:1040000000100020A15600003DA2000041A20000C7
:104010009D56000045A200004DA200009D560000E4
:104020009D5600009D5600009D5600009D560000C4
:1040300051A20000503F04009D5600009D56000014
:104040009D5600009D5600009D5600009D560000A4
:104050009D5600009D5600009D5600009D56000094
:104060009D5600009D5600003DB5000069470000C8
:10407000754700009D5600009D5600009D560000AB
:104080009D5600009D5600009D5600009D56000064
:104090009D5600009D5600009D5600009D56000054
:1040A0009D560000255E0000055E00009D56000044
:1040B0009D5600009D5600009D560000B925020047
:1040C0005D25020059250200B11D0200B525020040
:1040D000612502007925020065250200E10C02003D
:1040E000F92502009D5600009D5600009D560000D7
:1040F0009D560000899100009D5600009D560000CD
:104100009D5600009D5600009D5600009D560000E3
:104110009D5600009D5600009D5600009D560000D3
:104120009D5600009D5600009D5600009D560000C3
:104130009D56000010B5054C237833B9044B13B1DC
:10414000044800E000BF0123237010BD9818002030
:1041500000000000D4BE040008B5034B1BB10349A6
:10416000034800E000BF08BD000000009C180020CC
:10417000D4BE0400A3F5803A704700BF174B002B54
:1041800008BF134B9D46FFF7F5FF00218B460F46F6
:104190001348144A121A37F032FB0E4B002B00D092
:1041A00098470D4B002B00D09847002000210400B9
:1041B0000D000D48002802D00C4800E000BF37F089
:1041C000BBFA2000290000F079F937F0A1FA00BF0E
:1041D00000000800000000000000000000100020A7
:1041E0009818002018510020000000000000000076
:1041F00010B501200BF0CEF8BDE810400346024A8E
:10420000042002490AF07EBB97D60300E0D10300E8
:104210007FB510F0E1F802280446234D27D111F0B4
:10422000ADFC01262D78067185B92246062130465F
:104230001E4B11F019FC11F051FC034604201C4ADE
:104240001C4904B0BDE870400AF05CBB012DF2D1FE
:1042500006F04CF800221423C0B20193009008210C
:104260002846CDE90222144B11F0FEFBE3E72B7840
:10427000012B14D10DF074FF104A114B009011491D
:1042800004200AF03FFBFF210F4809F0CFFC00217A
:1042900025F064FC01220D4B1A7004B070BD0CF0C7
:1042A00073FD0B4AE9E700BF18190020D242040051
:1042B00018D2030034D2030013D2030009D2030042
:1042C00097D6030029D203001C190020D41800201F
:1042D00004D2030008B50F4B1B78ABB110F07CF88B
:1042E00002280CD00C4801F038FCFF210B4809F0E3
:1042F0009DFCBDE808404FF47A6125F02FBC0648CC
:10430000BDE8084001F023BC10F066F80228F6D0A2
:1043100008BD00BFD4180020FC2504001C19002093
:1043200008B5FF230D491A460D4809F03FFCFF234D
:104330000C491A460C4809F039FCFF230B491A4670
:104340000B4809F033FCFF230A491A460A4809F0D2
:104350002DFCBDE8084001F055B800BF1142000037
:10436000D8180020D54200001C190020F14100009F
:10437000F81800200D540000B4180020912802D134
:10438000044801F0E7BB902802D1024801F0DFBBEE
:10439000704700BFFC25040013B5044600900B4B8A
:1043A00004200B4A0B490AF0ADFA24B100220A4B53
:1043B0001A7002B010BDFF21084809F037FC40F622
:1043C000B83102B0BDE8104025F0C8BB1395040019
:1043D00004D2030029D20300D4180020F8180020CA
:1043E000002307B5084A00930420084B08490AF047
:1043F00089FAFF21074809F019FC40F6B83103B0EB
:104400005DF804EB25F0AABB09D203001395040064
:1044100029D20300F8180020012307B504200093D7
:10442000054A064B06490AF06DFA0022054B1A7040
:1044300003B05DF804FB00BF09D20300139504002C
:1044400029D20300D418002008B5054A03460549BF
:1044500004200AF057FA0022034B1A7008BD00BF6F
:1044600013950400E0D10300D418002023F062BBB0
:104470000F4A10B5116881420ED101F04EFA044680
:10448000A8B90C4B1870FF210B4809F0CFFB21464F
:10449000BDE8104025F062BB5268824207D101F0AE
:1044A0003CFA044618B90122024B1A70EBE710BD22
:1044B000C810002018190020D818002008B507F0EF
:1044C0005AF807F065F806F077FAFAE701F033B822
:1044D00030B50A4C0A4B22680A4D1A600A4B85B067
:1044E0002B600A4B019304F05DFE2B68029001A93A
:1044F0002068039303F0C2FB05B030BDA410002078
:10450000642700206027002098100020F024040079
:10451000014B186803F0C6BBA410002038B504F0A6
:1045200041FE0446064D2B68D3F8B00204F02EFE7F
:10453000286803F0CAFB2046BDE8384004F026BED8
:10454000A410002008B50421002002F075F8042111
:10455000062002F071F80721084602F06DF80721E5
:10456000082002F069F807211C2002F065F80721F5
:10457000242002F061F80721252002F05DF80020D8
:1045800008BD08B504F078FEBDE8084000F0DEB8CC
:1045900007B501A802F0ACFF264A936DDB0313D4E4
:1045A000536B23F4FF0323F4FE4343F4BC1343F49F
:1045B000A0635363136B23F4704343F440431363CA
:1045C000136B43F4E06313639DF80530012B0FD1A7
:1045D0009DF8043063B94FF000531B68164B1B68FD
:1045E000164B1B68164B1B68164B1B68164B1B683B
:1045F000164AD2F8803043F00303C2F8803004F04A
:10460000D1FB00F0A3FF04F06DFB04F0E9FB04F024
:1046100071FB04F0ADFBFFF795FF04F052FB00F0D7
:1046200093FF05F02BFA01F00DFC03B05DF804EBED
:1046300006F0ECB800C000400040002000800020E0
:1046400000C0002000000120004001200080004048
:1046500008B501F0FBF901F07FFB00F0DBF800F09A
:10466000FBF8BDE8084000F005B908B5FFF789FF81
:1046700000F05FFF06F096FC04F0B4FB14F0CEF8F7
:10468000BDE80840FFF724BF08B503F01BFA03F0AC
:104690002BFA03F041FA09F073FA09F001FBBDE8C7
:1046A000084009F037BB70477047FFF737BF08B5C0
:1046B00009F074FABDE8084009F004BB7047000037
:1046C00070B5114E92B035460BAC0FCD0FC495E8C6
:1046D0000700032384E8070003AD8DF8453006F199
:1046E0001C030FCB07AC85E80F0006F12C030FCBA2
:1046F00084E80F00054B214600930BAA2B46044883
:1047000005F0A2F812B070BD90250400F81B00203F
:10471000601C0020831E012B0AD8012908D804221E
:10472000094B1B69C3F340130521002002F094BA22
:104730000239012907D8012805D8034B00221B693B
:10474000C3F34013F0E7704700C0034008B50449C5
:10475000044806F00FF9BDE80840FFF7B1BF00BFFD
:10476000A8100020381C0020014B186805F02AB959
:10477000601C0020FFF7F8BF014B1A6A1868104749
:10478000601C0020012070470120704710B5FFF722
:10479000BFFE044605F061F9002808BF002409F0B7
:1047A00065FB002808BF0024FFF7ECFF002814BFBA
:1047B0002046002010BD38B506F0DCF90446FFF7AE
:1047C000DBFF04281ED002284FF0000508BF01249B
:1047D00005F045F9042817D0022808BF012409F084
:1047E00069FB042812D0022808BF0124FFF7CCFF80
:1047F00004280DD0022808BF0124002D18BF002472
:10480000204638BD0125E3E70125E8E70125EDE76E
:104810000024F5E742F2107307B5009300236946C0
:1048200003488DF8043001F0EFF903B05DF804FBA4
:10483000B010002008B518F067FA0022014B1A707A
:1048400008BD00BF841C0020FF20704708B5FFF79B
:10485000FBFF002008BD000008B5044801F058F82F
:10486000BDE80840024801F053B800BFCC25040061
:10487000E4250400014801F067B900BFFC250400ED
:104880001FB540F20162ADF80C2003AA0346009266
:1048900004210022012008F0A3FA05B05DF804FB12
:1048A0001FB540F20162ADF80C2003AA0346009246
:1048B00004210522012008F093FA05B05DF804FBFD
:1048C0001FB5084903460868097902AA02908DF8C5
:1048D0000C10009205210022012008F081FA05B099
:1048E0005DF804FB593604001FB50B4A0346D2F8A5
:1048F000050002A90290B2F80900D27AADF80C00C6
:104900008DF80E20009144224FF44071012008F0F0
:1049100067FA05B05DF804FB593604001FB5084975
:104920000346C868097C02AA02908DF80C10009218
:1049300005214222012008F053FA05B05DF804FB7E
:10494000593604001FB500228DF80C2003AA034637
:10495000009203210222012008F042FA05B05DF81E
:1049600004FB00001FB5084903460868097902AA3C
:1049700002908DF80C10009205214022012008F0D1
:104980002FFA05B05DF804FB593604001FB54FF44B
:104990008072039203AA034600924FF440714122B1
:1049A000012008F01DFA05B05DF804FB1FB50949A8
:1049B0000346D1F81100497D02AA02908DF80C102F
:1049C00000924FF440714022012008F009FA05B02E
:1049D0005DF804FB593604001FB509490346D1F8B8
:1049E0001100497D02AA02908DF80C1000924FF43C
:1049F00040714322012008F0F3F905B05DF804FB93
:104A0000593604001FB509490346D1F81600897EBE
:104A100002AA02908DF80C1000924FF440714222CD
:104A2000012008F0DDF905B05DF804FB59360400FB
:104A30001FB50346012003AA009205214122ADF8CB
:104A40000C0008F0CDF905B05DF804FB1FB54FF47C
:104A50008852ADF80C2003AA0346009204210222DA
:104A6000012008F0BDF905B05DF804FB1FB5034651
:104A7000012003AA0092052106228DF80C0008F0FF
:104A8000AFF905B05DF804FB1FB50346012003AA8A
:104A90000092032100228DF80C0008F0A1F905B066
:104AA0005DF804FB07B500220092012203460321B2
:104AB000104608F095F903B05DF804FB1FB500221D
:104AC000039203AA0092012203460821104608F02F
:104AD00087F905B05DF804FB1FB540F2044203926C
:104AE00003AA034600924FF440710822012008F007
:104AF00077F905B05DF804FB1FB50A4A0346D2F802
:104B00001B00B2F81F200290ADF80C2002AA009200
:104B10004FF440714B22012008F062F905B05DF8B6
:104B200004FB00BF593604001FB50022039203AAFC
:104B30000092012203464FF44071104608F050F9EC
:104B400005B05DF804FB1FB50022039203AA0346DB
:104B500000924FF440710422012008F041F905B0A1
:104B60005DF804FB1FB50A490346D1F8210091F80E
:104B7000251002AA02908DF80C1000924FF440719B
:104B80000722012008F02CF905B05DF804FB00BFF6
:104B9000593604001FB540F20112039203AA0346DE
:104BA00000924FF440710A22012008F019F905B073
:104BB0005DF804FB1FB50A490346D1F8260091F8B9
:104BC0002A1002AA02908DF80C1000924FF4407146
:104BD0000022012008F004F905B05DF804FB00BFD5
:104BE000593604001FB50A490346D1F8260091F84A
:104BF0002A1002AA02908DF80C1000924FF4407116
:104C00000622012008F0ECF805B05DF804FB00BFB7
:104C1000593604001FB54FF48072039203AA03466D
:104C2000009208210022012008F0DAF805B05DF8B2
:104C300004FB1FB54FF48072ADF80C2003AA0346A5
:104C4000009208210422012008F0CAF805B05DF89E
:104C500004FB1FB54FF48072039203AA034600922F
:104C60004FF440710322012008F0BAF805B05DF856
:104C700004FB1FB50022ADF80C2003AA03460092E6
:104C800008210522012008F0ABF805B05DF804FB0F
:104C900007B50022034606210120009208F0A0F883
:104CA00003B05DF804FB1FB50022ADF80C2003AA89
:104CB0000346009206214022012008F091F805B039
:104CC0005DF804FB07B5002200920122034606218D
:104CD000104608F085F803B05DF804FB07B5002224
:104CE0000346009206214122012008F079F803B022
:104CF0005DF804FB1FB50A490346B1F82B0091F893
:104D00002D1003AAADF80C008DF80E1000920621AC
:104D10004222012008F064F805B05DF804FB00BFF2
:104D2000593604001FB503AA00920522074903461D
:104D3000C88D91F83010ADF80C008DF80E100120E0
:104D4000114608F04DF805B05DF804FB5936040033
:104D500007B500220092042203461146012008F004
:104D60003FF803B05DF804FB1FB50346012003AA1A
:104D70000092052103228DF80C0008F031F805B0EF
:104D80005DF804FB1FB50346012003AA009204212D
:104D900003228DF80C0008F023F805B05DF804FB41
:104DA0001FB50346012003AA009205210222ADF897
:104DB0000C0008F015F805B05DF804FB07B50022FB
:104DC000034611460120009208F00AF803B05DF88E
:104DD00004FB00001FB509490346D1F8260091F8ED
:104DE0002A1002AA02908DF80C10009208210222CB
:104DF000012007F0F5FF05B05DF804FB593604000B
:104E00001FB50A490346D1F8310091F8351002AABE
:104E100002908DF80C1000924FF44071092201208D
:104E200007F0DEFF05B05DF804FB00BF5936040053
:104E30001FB50B4A0346D2F8360002A90290508FE4
:104E400092F83C20ADF80C008DF80E2000914C2219
:104E50004FF44071012007F0C3FF05B05DF804FB7B
:104E6000593604001FB50A490346D1F83D0091F8B0
:104E7000411002AA02908DF80C1000924FF440717C
:104E80000222012007F0ACFF05B05DF804FB00BF73
:104E9000593604001FB50A490346D1F83D0091F880
:104EA000411002AA02908DF80C1000924FF440714C
:104EB0000522012007F094FF05B05DF804FB00BF58
:104EC000593604001FB50A490346B1F8420091F86B
:104ED000441003AAADF80C008DF80E1000920821C2
:104EE0000622012007F07CFF05B05DF804FB00BF3F
:104EF000593604001FB50022ADF80C2003AA034662
:104F0000009208210322012007F06AFF05B05DF836
:104F100004FB1FB50022ADF80C2003AA0346009243
:104F20004FF440714722012007F05AFF05B05DF8A9
:104F300004FB07B500220346009208210722012046
:104F400007F04EFF03B05DF804FB1FB503460120D8
:104F500003AA009205210422ADF80C0007F040FFDF
:104F600005B05DF804FB07B5002203460092062158
:104F70000222012007F034FF03B05DF804FB1FB5E7
:104F80000022ADF80C2003AA034600920321402220
:104F9000012007F025FF05B05DF804FB1FB50122D5
:104FA00003A903460091104604218DF80C2007F058
:104FB00017FF05B05DF804FB1FB5012203A90346E6
:104FC000009110460521ADF80C2007F009FF05B04F
:104FD0005DF804FB07B500920B46027D818980686D
:104FE0000EF08AFA002814BF8020002003B05DF87C
:104FF00004FB00000A460149FFF7ECBFE03E040055
:105000000A460149FFF7E6BFA83E04000A460149E7
:10501000FFF7E0BFF93E04000A460149FFF7DABF97
:10502000ED3E04000A460149FFF7D4BF903E04005C
:105030000A460149FFF7CEBF9C3E04000A460149DB
:10504000FFF7C8BFCD3E04000A460149FFF7C2BFC3
:10505000A13E04000A460149FFF7BCBFAB3E040075
:105060000A460149FFF7B6BFD23E04000A4601498D
:10507000FFF7B0BFD93E04000A460149FFF7AABFB7
:10508000B93E04000A460149FFF7A4BFB23E04003E
:105090000A460149FFF79EBFC03E04000A46014987
:1050A000FFF798BF953E04000A460149FFF792BFFB
:1050B000FC3E04000A460149FFF78CBFF03E0400A5
:1050C0002DE9F041047D8289631C9A4206460D4613
:1050D00002D28020BDE8F081A4B2214610F02CFE5F
:1050E0002870B38904F103084345F2D33046611CAC
:1050F00010F025FEB389271DBB426880E9D34146E5
:10510000304610F019FE2B7828713BB14FF6FF7333
:10511000EB800023AB600020E860DBE739463046D7
:1051200010F00DFE2B78E8800634002BF1D12146DB
:10513000304610F008FEA860B068204410F0ECFD86
:10514000013004442878A4B20028E4D1B1680C44AA
:10515000EC60BFE72DE9F041057D82896B1C9A4226
:1051600080460C4602D28020BDE8F081ADB22946CF
:1051700010F0E2FD2070B8F80C30AF1CBB42F2D347
:105180004046691C10F0D8FD6070B8F80C302E1D38
:10519000B342E8D33946404610F0D1FD2378608011
:1051A00023B1FF2323710020A060DDE73146404694
:1051B00010F0C2FD2071207805350028F3D1D8F811
:1051C00008301D44A560CFE7704708B500200EF0F9
:1051D00071FF002011F06AFB002009F0E5FB0020C0
:1051E00009F01EFF00200AF03BF900200AF0BCFB8A
:1051F00000200BF05BFC00200CF060F800200CF0AD
:10520000DBFABDE8084000200DF036B808B50120F3
:1052100009F054FB012009F079FDBDE808400120A8
:105220000AF0A2BB08B502200EF0D6FF02200CF057
:10523000CDFA022011F024FE02200BF06DF90220BD
:105240000DF04EFCBDE8084002200EF0E3BC09F072
:10525000EFBE0FF05BB810B49DF8044001945DF808
:10526000044B0FF077B870470BF0AEBB7047704738
:1052700070477047704710B504460EF0D9FA2046C3
:1052800009F070FC20460BF04FF920460BF0DCFED5
:105290002046BDE810400DF0A5BC0CF017B80CF08E
:1052A00021B80CF02BB870477047704709F0F6BE74
:1052B0007047704770477047704770477047704736
:1052C00038B504460D460BF04BF929462046BDE89B
:1052D00038400CF025BA704770470CF079BF0CF0DD
:1052E000BBBF0CF0BBBF0DF0D9BD0AF0FFBA7047D1
:1052F0007047704782B06B4683E8060093E806006B
:1053000002B009F031BA7047704770477047704774
:1053100010F074BC10F078BC70470020704710F09B
:1053200075BC10F080BC0000F0B5304F91B03E4627
:1053300008AD0FCE0FC596E80F00002485E80F00DA
:1053400003232B4D386ACDE90344029028468DF89B
:105350000E30CDE90544079401F058FD02210520E7
:1053600001F06AF922462846224901F0C7FD23468A
:1053700022468DF8190000901F4928468DF82340D9
:1053800001F0D6FD08AA0A9005A9284601F0F8FD0B
:105390003023284602AA03A98DF80E3001F0F5FC4F
:1053A00004224FF44451062001F0BCFF234621465D
:1053B0000222062001F0BCFF2346214604220220DF
:1053C00001F04AFC22460221204600F0D9F80B4C9D
:1053D0000B49206000F032F90421206800F0FCF84D
:1053E000206800F02DF911B0F0BD00BF243F04008B
:1053F0000040004A40420F00A0860100881C0020A7
:10540000B4180020FFF790BF70470000F0B587B0D8
:1054100004F017FB394EFF2133680546C41A38489B
:1054200008F004FC24F014FC3B2C58D90023102273
:10543000CDE9023301278DF806308DF8073030238F
:10544000304C8DF80520204601AA02A98DF8047081
:105450008DF80A3001F099FCE760636903F4A073EA
:10546000B3F5807F3DD1274904A801F001FFDDEDB0
:10547000047A9FED257AF8EE677A67EE877AFCEE7C
:10548000E77A17EE904AA4002346049A1F490020A9
:1054900010F046FD1E491F4A0B78A4B223B31E49E3
:1054A0000878431CDBB20F2B0B7088BF002322F857
:1054B00010404FF010024FF0000488BF0B70154BE6
:1054C00033F8021B013A12F0FF020C44F8D1C4F386
:1054D0000F142046FFF798FF104B35601C8007B073
:1054E000F0BD04F0EFFAB8E71023013B13F0FF031F
:1054F00022F8024BF9D101230B70EAE7F0100020EB
:10550000B41800200040004A7549973E053F04004A
:10551000851C0020901C00208E1C00208C1C00206C
:10552000042208B511460123032001F095FB002059
:1055300008BDFFF7F5BF042208B51146002303207C
:1055400001F08AFB002008BDFEF7C0BF70470000D5
:1055500070B51426094C054606FB0043DB6803B111
:10556000984706FB0544206938B1FF2108F05EFB2F
:10557000BDE87040002124F0F1BA70BDB81C0020D5
:10558000F7B50D461421044600EB80064843104B46
:105590001F1803EB86061C547D7012B1012000FA1F
:1055A00002F201FB043300275A6003222046C3E9BC
:1055B00003771A81074900F0E7FB012328462246BA
:1055C00021460197009301F003FB304603B0F0BD84
:1055D000B81C00205155000013B501720239044671
:1055E00003290FD8DFE801F01A0205100121012379
:1055F00016E0104B41681A68114319600E4B186889
:1056000001F06AFB0021F2E70A4B4268196821EABF
:1056100002011960084B186801F05EFB01210023AC
:10562000607A2278CDE900101146607801F0D0FA56
:1056300002B010BDB41C0020B01C002001617047F6
:1056400073B50125027A4572023AD2B2032A98BF95
:105650000E4B044698BF9D5C406896BF0C4B0026DD
:105660009E5C38B10B4B1A68104318600A4B1968DE
:1056700001F032FB01232278CDE9006311462B466D
:10568000607801F0A5FA02B070BD00BF483F040089
:105690004C3F0400B01C0020B41C0020FEE70000BA
:1056A00008B500F013F8064B064A07498B4201D3B0
:1056B000FEF764FD52F8040B43F8040BF6E700BF55
:1056C00098100020DCBE040098180020044B054A06
:1056D0009A60D3F8882042F47002C3F8882070479B
:1056E00000ED00E000400000014B1868704700BF6B
:1056F000F8100020014B1860704700BFF810002020
:10570000084B1B6F03F00703022B04D0032B05D0BB
:10571000012B05D0FEE7044B18687047034BFBE7ED
:105720000348704700800040F8100020FC10002063
:10573000002D310108B5FFF7E3FF054B1B6FC3F3E5
:1057400001330133B0FBF3F0024B186008BD00BF1A
:1057500000800040F41000200048704700B4C404EA
:10576000014B1868704700BFFC100020054B186003
:10577000054B1B6F03F00703032B01D1FFF7DABFC3
:10578000704700BFFC1000200080004000207047E0
:1057900000487047002D3101174B9868C0F3044052
:1057A0000C2822D8DFE800F0092121212121071748
:1057B00019211B1D1F00114870479B6803F040739F
:1057C000B3F1807F13D0B3F1007F12D00C4A002BCD
:1057D00008BF104670470B4870470B4870470B488E
:1057E00070470B4870470B487047002070470A48C5
:1057F00070470A48704700BF0040014A405DC6003C
:1058000000093D000024F400C0EA210180BA8C01A7
:105810000048E801005A620280841E0040420F00E6
:105820004FF4004070474FF47A707047014B18688E
:10583000704700BF00110020002303607047036819
:105840000B600160704710B538B132B129B1002347
:105850000139D45C14B90023037010BD8B42FAD215
:1058600000F8014B0133F4E7034638B100201A5C1D
:1058700022B1814200D170470130F8E770474FF004
:10588000FF31FFF7F1BF70B50C461646054660B113
:105890005AB151B1FFF7F3FF844206D9211A3246BB
:1058A0002844BDE87040FFF7CEBF70BD70B5D0B1E1
:1058B000C9B10E4E431E013913F8014F2046A25DB7
:1058C00002F00302012A11F8012F08BF04F12000A1
:1058D000B55C05F00305012D08BF2032801A01D107
:1058E000002CE9D170BD0120FCE700BF66BD0400BB
:1058F00005490A681318054883428CBF4FF0FF32F0
:105900000B601046704700BF04110020008001208A
:10591000436803B1184722207047436903B1184711
:10592000FF2070470A681378022B0DD030231079BE
:105930005843064B1B585079C340DB4303F0010327
:1059400008461370FEF794BD704700BF14C00340B3
:1059500037B504680023012205466179207901F0FA
:105960007BF9302322795A430E4B9B586279D340FE
:10597000DB4303F001032370A379022B0ED100F067
:10598000EBF92A460849607900F010FA0123024633
:1059900061792079CDE9003301F01AF9002003B0D4
:1059A00030BD00BF14C003402559000003681878BB
:1059B0007047000002681378022B22D0302311793F
:1059C0005943104B5B585179CB40917903F0010357
:1059D000012912D1508843EA40034FF6E07063F08A
:1059E0003F039BB2834202D11170538070474FF640
:1059F000DF718B42F9D10021F6E711B983F0010381
:105A00001370704714C0034003681A78022A03D148
:105A100000225A80FFF79CBF704713B504682378B3
:105A2000022B10D0A379022B0BD10021607900F05A
:105A3000ABF90023627920791146CDE9003301F0FA
:105A4000C7F80223237002B010BD000008B504227D
:105A500001230321002001F0FFF8002001F0B6F837
:105A600001221B4B0521C3F844240C2000F0E4FD67
:105A70000C2000F083FC174B00F5D520D3F8F02064
:105A800000F2FC4042F00102C3F8F020D3F8FC2001
:105A900042F08072C3F8FC200F4AA3F55D431A6000
:105AA0000E4B0222B0FBF3F00D4B01381861C3F826
:105AB000F0204FF48072C3F804234FF06043094A8A
:105AC0000020C3F8B02F084AC3F8802E08BD00BFDD
:105AD00000D0034000ED00E0FF030040F8590D0046
:105AE000000004E055CEACC5090001004FF0604253
:105AF0000123D2F8001E03FA00F00843C2F8000E9A
:105B0000002070474FF06043D3F8802E30B5D207A5
:105B100015D501240B4D8440D5F8FC2042F080724D
:105B2000C5F8FC20D3F8002E2243C3F8002E53F80A
:105B30002020002AF0D003F82010002030BD1120D2
:105B4000FCE700BF00ED00E0D0E9000318478368E0
:105B500000681847C3680068184703690068184759
:105B600008B583784178B3FA83F3042200785B099F
:105B700001F072F8002008BD10B5012243780178C9
:105B8000847830209A40054B00FB01331CB942F267
:105B900010015A5010BD41F21001FAE700C0034055
:105BA00010B5012243780178847830209A40054B63
:105BB00000FB01331CB941F210015A5010BD42F2F2
:105BC0001001FAE700C003400122417803788A40BF
:105BD00030214B4343F2100103F1804303F570334E
:105BE0005A50704730230246017840785943054B9C
:105BF0005B58C34003F0010093780BB980F00100BB
:105C0000704700BF10C0034070B53D4B05680446A7
:105C10009D420E4688B069D062D8A3F500439D42EC
:105C200066D003F580439D420CBF1E2500253379C5
:105C30000422A179607901F00FF80D220021684655
:105C400035F0DDFD03238DF8063001238DF8053096
:105C500002238DF80130337921795A1E5342534182
:105C600020686A468DF80A3001F0D2FC2268254B84
:105C70009A423FD003F580439A423DD003F58043DA
:105C80009A423BD020482149A3F59D33703B824284
:105C900018BF0B46A0796279217942EA004243F8A5
:105CA0002120284600F06AFB33682568B0FBF3F03A
:105CB00001382B6BE8612379002405EB43132A6B31
:105CC00021460E229C6604A835F099FD0123284642
:105CD00004A98DF8103001F04EFC204608B070BDCC
:105CE000094B9D420CBF20250025A0E71F259EE7FC
:105CF0001D259CE7064BCDE7064BCBE7064BC9E7D6
:105D000000000540008004400040054010C50340ED
:105D100030C5034050C5034070C5034070B504460C
:105D200001250C4E04B970BD94FAA4F3B3FA83F3C1
:105D300005FA03F206EB031124EA02044A68002A7A
:105D4000F0D0D8B20B7B13B189689047EAE790474F
:105D5000E8E700BFF81D002008B5192000F0DEFEBE
:105D600028B14FF00072074BC3F880211A601A2047
:105D700000F0D4FE28B14FF08062024BC3F88021BE
:105D80001A6008BD00E100E038B505460C4600F099
:105D9000BCFE0022044B03EB05135C601A73BDE8E4
:105DA000384000F0B8BE00BFF81D0020F8B5054629
:105DB0000F46164600F0A9FE104B05F0FC02D3F882
:105DC00024140023EC1804F00304144321FA04FC07
:105DD0001CF0010F07D00133042BF3D1FF2400F096
:105DE0009AFE2046F8BDFF2CF9D00122044B03EBAC
:105DF0000413C3E901761A73F1E700BF00C0034042
:105E0000F81D0020064BD3F82404D3F8202403F512
:105E10000053104000F05530C3F82004FFF77EBF58
:105E200000C00340064BD3F82404D3F8202403F524
:105E30000053104000F0AA30C3F82004FFF76EBFF3
:105E400000C00340024B1968024B186815F012BDE0
:105E50000C110020081100207047000037B5920097
:105E600004460D46019237F0B3F9431C0BD060B9DC
:105E700029462046019A35F08BFC0028044808BFCB
:105E8000002003B030BD0348FBE70348F9E700BF3B
:105E900010E000F021E000F024E000F013B504462B
:105EA00001A801F025FB9DF80630012223804FF464
:105EB000807300206380054B9B680A3303F01F0347
:105EC00002FA03F3636002B010BD00BF0080E00F70
:105ED00001F0E2B908B501F0D3F9002008BD10B512
:105EE000044644EA010313F00303084609D1934230
:105EF00001D1002010BD54F8231040F823100133C5
:105F0000F5E72146920035F053FCF2E710B5044660
:105F100037F056F9431C15D0B0B90C4B20469B689E
:105F20000A3303F01F020123934023F003032344A9
:105F3000984201D1002010BD50F8042B0132F7D057
:105F40000348F8E70348F6E70348F4E70080E00F6A
:105F50000EE000F021E000F024E000F008B500F0D1
:105F6000C5FD014B186008BD88260020014B18684C
:105F700000F0C0BD88260020704700002E4B9842DC
:105F80004AD022D82D4B984240D014D82C4B98425E
:105F900039D00AD82B4B984232D02B4B98422FD075
:105FA0002A4B98422CD000207047294B9842FAD1B6
:105FB000284B186F7047284B98422AD0274B98429D
:105FC000F1D1244BD3F880007047254B98422BD059
:105FD00009D8244B984223D0234B9842E3D11D4B40
:105FE000D3F88C007047214B984221D003F57403FD
:105FF00003F510539842D6D1164BD3F8980070474A
:10600000144B986D7047134B586E7047114B586F77
:106010007047104B986F70470E4BD3F88400704751
:106020000C4BD3F8880070470A4BD3F890007047A8
:10603000084BD3F8940070470048E8010024F400AE
:10604000C0CF6A0080841E0000093D0040420F005E
:10605000405DC6000080E00FC0EA210180BA8C01DB
:10606000007E560380D54302006CDC020090D00312
:1060700038B5124B0546D3F820310C4603F0070320
:10608000013B032B17D8DFE803F0020A0E12FFF7DB
:106090002BFB042305B1286004B1237038BDFFF742
:1060A0005FFB0323F6E7FFF777FB0523F2E7FFF734
:1060B0006FFB0223EEE700231846EBE70080004069
:1060C00037B50C460021124A0191D2F880210546CD
:1060D00002F00302022A0ED0032A11D0012A14D1A1
:1060E00001A8FFF7C5FF0D230DB1019A2A6004B185
:1060F000237003B030BDFFF74FFB05230190F3E79A
:10610000FFF746FB02230190EEE70B46ECE700BFEA
:106110000080004038B5104B0546D3F840310C469E
:1061200003F00303022B0BD0032B0DD0012B0FD157
:10613000FFF776FB082305B1286004B1237038BD52
:10614000FFF774FB0723F6E7FFF76DFB0923F2E780
:1061500000231846EFE700BF0080004038B5104B21
:106160000546D3F860310C4603F00303022B0BD035
:10617000032B0DD0012B0FD1FFF752FB082305B1E4
:10618000286004B1237038BDFFF750FB0723F6E702
:10619000FFF749FB0923F2E700231846EFE700BFAA
:1061A0000080004038B5134B0546D3F800320C464A
:1061B00003F00703013B032B18D8DFE803F0020AC2
:1061C0000E12FFF72DFB082305B1286004B12370E0
:1061D00038BDFFF72BFB0723F6E7FFF724FB092366
:1061E000F2E7FFF7A7FA0C23800AEDE70023184631
:1061F000EAE700BF0080004038B5134B0546D3F8EE
:1062000008320C4603F00703013B032B18D8DFE8E4
:1062100003F0020A0E12FFF703FB082305B1286002
:1062200004B1237038BDFFF701FB0723F6E7FFF742
:10623000FAFA0923F2E7FFF77DFA0C23800AEDE76B
:1062400000231846EAE700BF0080004038B5104B35
:106250000546D3F840320C4603F00303022B0BD063
:10626000032B0DD0012B0FD1FFF7DAFA082305B16C
:10627000286004B1237038BDFFF7D8FA0723F6E78A
:10628000FFF7D1FA0923F2E700231846EFE700BF32
:106290000080004038B5104B0546D3F800310C465D
:1062A00003F00303022B0BD0032B0DD0012B0FD1D6
:1062B000FFF756FA032305B1286004B1237038BDF7
:1062C000FFF7B4FA0723F6E7FFF760FA0623F2E7D1
:1062D00001230020EFE700BF0080004041F671334A
:1062E0000F4A10B5D169D36393680E4C23F4401361
:1062F000A04288BF43F4801393600B4A0B4CD2F842
:106300001832A04223F0020388BF43F0020301F4D5
:106310008031C2F8183211B10022014BDA6310BD8E
:1063200000000340C017530200C0074080F0FA028B
:1063300008B5FFF711FABDE80840FFF7CFBF00002E
:10634000032814D005D8012805D0022809D0002040
:1063500005E00F28FBD1084B186FC0F30130013066
:106360007047054BD3F89000C0F30460F7E7024B89
:10637000186FC0F38020F2E7008000401FB50023B3
:106380000293252817D8DFE800F0131A1D262B35B5
:106390003A51565B60656A78161A3F1616561A26E9
:1063A0002B26351A5126783A3A3A3A2626265B6049
:1063B000FFF7A6F90290029805B05DF804FBFFF71D
:1063C000B9F9F7E7FFF79CF902460220FFF7B8FF9B
:1063D000B2FBF0F0EEE7FFF7ADF902460320F5E778
:1063E000FFF7A8F902460320FFF7AAFFB2FBF0F07F
:1063F0004008DFE7002102A8FFF762FEDBE700218B
:1064000002A8FFF735FED6E703934FF0E0231B69A0
:106410005B0705D5FFF78EF90390039B0293CAE74C
:106420000DF1070103A8FFF775FEF6E7002102A8AA
:10643000FFF770FEBFE7002102A8FFF78FFEBAE763
:10644000002102A8FFF7AEFEB5E7002102A8FFF782
:10645000D3FEB0E7002102A8FFF71CFFABE7094B12
:10646000D3F8803003F00303022BA8D0032B01D014
:1064700000209FE7FFF790F99CE7002102A8FFF7B3
:10648000E5FE98E70080004008B50120FFF776FFA1
:10649000BDE80840034988428CBF02210121032046
:1064A00000F002B880F0FA02032810B50C4626D09E
:1064B00004D8012804D0022816D010BD0F28FCD122
:1064C000FFF736FF00F026F8114B013C196F21F45D
:1064D000405141EA04341C67FFF72CF9FFF7FEFE38
:1064E000BDE81040FFF7D0BF094B013CD3F8901036
:1064F00021F0F85141EA0464C3F89040DDE7044B11
:10650000013C196F21F4806141EA84241C67D4E7BF
:106510000080004002210320FFF7C6BF002307B51B
:106520008DF80230252822D8DFE800F01321212140
:10653000212C324C52585E646A7D2121382121522F
:10654000212121212C214C217D3232323221212165
:10655000585E384B1B6F03F00703013B032B06D833
:10656000DFE803F00E020A0C04238DF802309DF8D8
:10657000020003B05DF804FB0323F6E70623F4E70B
:106580000223F2E700200DF10201FFF799FDEEE78B
:1065900000200DF10201FFF76BFDE8E701934FF0DA
:1065A000E0231B695B0707D5FFF7C4F80B238DF8C1
:1065B00003309DF80330D8E70DF1030101A8FFF780
:1065C000A9FDF6E700200DF10201FFF7A3FDCEE7DC
:1065D00000200DF10201FFF7C1FDC8E700200DF119
:1065E0000201FFF7DFFDC2E700200DF10201FFF716
:1065F00003FEBCE700200DF10201FFF74BFEB6E7FA
:106600000C4BD3F8803003F00303022B03D0032B91
:1066100005D00023A9E7FFF78DF80B23A5E7FFF7C7
:10662000BBF80523A1E700200DF10201FFF70EFEE4
:106630009DE700BF0080004070B50C46252847D874
:10664000DFE810F0260046004600460046005A00EB
:106650006B009C00AD00BE00CF00E000F100020125
:10666000460046007C0046004600AD00460046005D
:10667000460046005A0046009C00460002016B009E
:106680006B006B006B00460046004600BE00CF006A
:106690008B1E042B2DD8DFE803F0291C032C2600C9
:1066A00000250226FFF744FEFFF734FF6F4A136F01
:1066B00023F0070333431367FFF73CF8FFF70EFEA1
:1066C000FFF7E2FE25B9032C02D10122684B9A6242
:1066D00070BD0122674B03269D6A03F58053C5F305
:1066E00040059A62DEE700250426DBE70025012647
:1066F000D8E700252E46D5E78C1EE4B20B2C8CBFC4
:1067000000215D4B594A98BF195DD2F8803123F0C2
:1067100003030B43C2F88031DAE78C1EE4B2032C8A
:106720008CBF0021554B514A98BF195DD2F82031DA
:1067300023F007030B43C2F82031C9E70B2912D01D
:106740000ED8CC1F022CC3D84D4A536A43F0010324
:1067500053624FF0E022136923F004031361B7E79B
:106760000E29B5D1F0E7464A536A23F0010353627C
:106770004FF0E022136943F00403EFE7CC1FE4B2CB
:10678000022C8CBF00213F4B384A98BF195DD2F8CC
:10679000403123F003030B43C2F8403198E7CC1F8C
:1067A000E4B2022C8CBF0021374B304A98BF195DF0
:1067B000D2F8603123F003030B43C2F8603187E75E
:1067C000CC1FE4B2052C8CBF0021304B274A98BF68
:1067D000195DD2F8003223F007030B43C2F80032F0
:1067E00076E7CC1FE4B2052C8CBF0021284B1F4A52
:1067F00098BF195DD2F8083223F007030B43C2F8A3
:10680000083265E7CC1EE4B2042C8CBF0021214B7A
:10681000164A98BF195DD2F8003123F003030B43E9
:10682000C2F8003154E705290CD00B2914BF002110
:1068300002210E4AD2F8803023F003030B43C2F842
:10684000803045E70321F4E7CC1FE4B2022C8CBF73
:106850000021114B054A98BF195DD2F8403223F050
:1068600003030B43C2F8403232E700BF0080004010
:1068700000E0004000C00040B43F0400C03F0400FE
:1068800000C00740C43F0400C43F0400C73F0400E9
:10689000C73F0400CD3F0400C43F040038B505469F
:1068A000FFF76CFB204B04465A68012A04D11F49AC
:1068B0004A609A699207FCD10020FFF72FFE042856
:1068C00003D1FFF735FDFFF725FE194A24F0407389
:1068D000954220D0174A954220D0174AD16811F02E
:1068E000060FFBD190689360916803F4F81301F4EC
:1068F000F8118B4215D12846FEF7FCFE0020FFF769
:106900000DFE04280FD1FEF715FFFFF7E7FCBDE8E9
:106910003840FFF7B9BD43F00073DEE743F0807302
:10692000DBE79060EAE738BD00C0014000E00140CD
:1069300040420F0080841E000000014070B50446F4
:106940000020FFF7EBFD032877D045F60E03022267
:106950003F49C1F880303F4B9A62012203F58053D2
:106960009A628A6D12F48032FBD1637820781B051D
:1069700043EA0063A079257C0343E078667C43EA20
:106980000043207943EA0033607943EA80130B61C6
:106990008B69E07A03F000430343E07943EA8063C4
:1069A000207A43EA0063607A43EA0043A07A43EA2C
:1069B00000238B61637B096A002B18BF0822207BB0
:1069C00021F00D0143EA010343EA800342EA030296
:1069D0001F49A37B0A624FEA43132FD1886AE27BE7
:1069E00020F0330043EA0213034343F001038B62B8
:1069F000194B8A6D33EA0202FBD10222154B9A62CF
:106A00008B6D5B00FCD44FF000420869A37820F442
:106A1000700040EA03500F4B08619A611DB90222D1
:106A200003F580539A6216B901220C4B9A62A37C3B
:106A30001BB1074B0A4AC3F8802070BD8A6A22F056
:106A400033023243134343EA45038B62EFE700BF4F
:106A500000C0004000D000400300014000E00040C2
:106A6000F1A7FFFF014B93F9000070473C2700207E
:106A7000F0B54FF4D1560227174A41788478C3788D
:106A800005785662154E4F2977604FF0010728BFF1
:106A90004F2106F5805677601669F603FCD441EA6B
:106AA000052151611B01417943EA04230B4301791C
:106AB00043EA41039360C37981791B0143EA41139F
:106AC000417A0B43017A43EA41035360837A13B15D
:106AD0006FF4D1535362F0BD000002400010024039
:106AE000014B1880704700BF2C110020EFF310807D
:106AF00072B6704700B962B67047302383F31188CD
:106B00007047002383F311887047EFF3118030231F
:106B100083F31188704780F311887047054B420951
:106B200053F8223000F01F0023FA00F0C04300F0B9
:106B30000100704700E100E0704770470A4A10B555
:106B40001369044643F00403136104F0AFF8FFF740
:106B5000F3FF30BFFFF7F1FF04F0BCF81CB9BDE84C
:106B60001040FEF7E7BD10BD00ED00E0084A10B58B
:106B70001369044643F00403136104F097F830BF2F
:106B800004F0A8F81CB9BDE81040FEF7D3BD10BD55
:106B900000ED00E0704770474FF04022D36E01795E
:106BA00023F030030B43D366704770B50546144697
:106BB0000E46FFF79BFF296881EA040202EA0604F9
:106BC0004C402C60BDE87040FFF794BF7047000058
:106BD000072AF7B50D4614461F460FD80321960025
:106BE000B14000FA06F215480191FFF7DEFF05F00B
:106BF000030201991248B240FFF7D7FF114B124927
:106C00009DF82000002F08BF1946012303FA04F461
:106C10000C600E4B0E49002808BF0B461C600D4B44
:106C20009DF82400C3F820441031A3F6DC3300287B
:106C300008BF0B461C6003B0F0BD00BF00C403409A
:106C400008C4034010E4034010D4034014D40340AC
:106C500014E4034000E00340F8B504460D461F4627
:106C600016464AB101238B403021184A01FB00220D
:106C7000F7B141F2100153503023072D4FF00F01AF
:106C800004FB03F317D8A80006FA00F2814010486D
:106C90001844FFF78AFF56B9012130230B4801FA47
:106CA00005F503FB040077B141F21003C550F8BDB0
:106CB00042F21001DFE7A5F10800800006FA00F2B9
:106CC00081400448E4E742F21003EFE700C00340CC
:106CD00004C003400CC00340114B0140D3F83024E2
:106CE00022EA0002C3F83024D3F830241143C3F859
:106CF0003014D3F82C240243C3F82C244FF0402244
:106D0000D36E03F03003202B1FBFD36E23F030036C
:106D100043F01003D366034BC3F82004704700BF51
:106D200000C0034000E0034010B5002422B1032A54
:106D30000CD00360047110BD11F4000218BF4FF0B5
:106D40007F4221F07F4313430C0EF2E721F0FF0353
:106D5000CCB2EEE7012230B500F5805344685A60AA
:106D60008B780D88C9781B04002914BF4FF40031BB
:106D7000002103F480332B430B43C0F89830E30722
:106D80005CBF00F50050426030BDF8B501260C46EE
:106D900000F500535E600B78054603F00701637849
:106DA000002BA37818BF08274FEA031303F0300322
:106DB00043EA0103E17808BF0027002914BF4FF41C
:106DC000807100213B430B43036723796779C16AD4
:106DD0001B023F0303F4E06307F4805721F48B3177
:106DE00021F480713B430B43A179002914BF4FF478
:106DF000803100210B43C3621146FFF7ABFF05F55D
:106E000080535E60E37903B1EE60F8BD012200F5C6
:106E10008053F0B55A60284B284AC3604369134039
:106E2000FCD18361C0F89830436913F4401FFBD153
:106E30004369DA052CD4836F53BB43699B0529D47E
:106E4000D0F8883033BBC26FD0F88C20012200F517
:106E500000514A6030221A4C8360A0420CBF0224C9
:106E60000024036142F26006C3629C46036202672B
:106E7000C0F880201A46134FA2420ED10024104AB7
:106E8000904201D1102B10D10F4B4B628B62F0BDA1
:106E9000436FCDE7D0F88430CFE700EB0215AE6446
:106EA00001322F65C5F854C0E6E703F1280540F824
:106EB00025400133E4E700BF120002005200010048
:106EC0000040004A00C002808F330F80084608B59A
:106ED00029B91820FFF752FA012838BF01200649C6
:106EE00000F5742000F23F20B0FBF1F001387F285C
:106EF00028BF7F20C0B208BD40420F0010B50B4C28
:106F00008C4228BF0C461AB91820FFF737FA024600
:106F1000601E0244B2FBF4F0A24228BF00F1FF3031
:106F2000032828BF0320C0B210BD00BF005A620270
:106F300010B51148114C002B18BF2046884228BFBD
:106F4000084604461AB91820FFF718FA02469DF8B9
:106F5000080040F2FF330130B2FBF0F2601E024441
:106F6000B2FBF4F0A24228BF00F1FF30984228BFE4
:106F70001846C0B210BD00BF80969800404B4C0030
:106F80002DE9F04F0E461446AE49002285B0054665
:106F9000FFF7B4FF73790122984238BF184605F510
:106FA00000535A603179C7B219B92846FFF78EFFEE
:106FB0000146F3783A071B0102F0E04203F0300388
:106FC00013430804327800F4FE0003430AB143F08F
:106FD000020372780AB143F00403B2780AB143F0B5
:106FE0000803AB60F38832892B617389002643EA7A
:106FF0000243DFF85882DFF87092DFF870A22B624C
:10700000454501D1022E06D1012305F580556B605F
:1070100005B0BDE8F08F002223788B49D4F808B082
:10702000934218BF4946894800970393FFF780FFB2
:107030005FFA8BF205EB061E9042039B38BF1046A9
:10704000DEF8482003F0030C02EA0A024CEA0202CE
:1070500094F801C031014FEA8C0C0CF01C0C42EA90
:107060000C0294F802C04FEA0C3C0CF4E04C42EAEB
:107070000C0294F803C04FEA0C4C0CF4E02C42EAEA
:107080000C0294F804C04FEA0C7C0CF0405C42EA1D
:107090000C02CEF84820DEF84820DFF8B4C1C2F375
:1070A0000232013A042A00F28980DFE802F0878781
:1070B00087030300DCF88421721D002B76D108EBD6
:1070C00001039B6CC3F3023C0CF1FF33012B604BBB
:1070D00077D8DFED607AD3F880311FFA83FC414422
:1070E000896C2CF4C043C1F3820B01210BF1010E1A
:1070F00001FA0EF107EE101A9B041CF4004FB8EED3
:10710000C76AF6EE006ADFF848E118BF43F00043B3
:10711000BBF1000F78D1DEF88C1109B207EE101A1E
:10712000B8EEC77A77EE877A94ED037A9FED4A5AE4
:10713000B8EE477AC7EE055AB7EE045A85EE257ABF
:10714000DFED465A67EE277A85EE867A9FED446A30
:1071500027EE067AB1EE006AB3F1004F07EE867AA9
:107160000BD09FED406A07EE90CA77EE065AFAEE12
:10717000E87AB0EE467A17EEA57AB5EEC07AF1EE6F
:1071800010FACABFB1EE477A36EEC77A37EE667AA2
:10719000FDEEC77A17EE901AB1F5003F49DB6FEAB2
:1071A00053436FEA4343110148F80130C0F309002B
:1071B00008EB021250600136103421E7DCF8802120
:1071C0007AE7BCF1030F0BD1D3F880C1D3F88C312F
:1071D0004FEA1C4C1B1407EE903AF8EEE77A7EE774
:1071E000BCF1040FD3F884C10BBFD3F88C31D3F8B2
:1071F0008C311B141B1407BF1FFA8CFC5B004FEA79
:107200001C4C03EB4303E6E7DEF8901166EE265ACA
:1072100009B207EE101AB8EEC77A77EE677ADEF891
:10722000881187EEA57A09B207EE901AF8EEE77A90
:1072300078E711F5003FAABFC1F3110143F4003311
:107240000B43B0E7005A6202809698000040004A63
:107250000080E00F0000000000007A44000080433E
:107260000000204400000049404B4C00E08FF8CF64
:1072700008B50A6FC96F02F00702FFF755FD08BD98
:1072800041F67132034BDA63012203F50053DA60F1
:10729000704700BF0000034041F671320121044BEA
:1072A000DA6303F50052D1600022DA63704700BF51
:1072B00000000340013825289ABF024B185C0020CB
:1072C000704700BFD23F04002338032803D80429A5
:1072D0009CBF024B595C0846704700BFF83F040052
:1072E00038B5C2F30625044602F0070241B90C4B3B
:1072F00042EA052242F44022063443F8242038BDF5
:1073000011462846FFF7E0FF01462846FFF7D2FF67
:10731000034B41EA0020123443F82400EFE700BF9A
:10732000008003400A4392B20021FFF7D9BF00005A
:1073300010B50E4C00290E4918BF214642EA0343FE
:1073400041F820304FF001030A4A18BF0C30D2F840
:10735000E41413BF834003FA00F001430B430CBF56
:10736000C2F8E414C2F8E43410BD00BF18C50340ED
:10737000E8C4034000C003404FF40032014B1A67D9
:10738000704700BF005000404FF04023D3F89400F6
:1073900070474FF090435A6812B19A6A002AFAD1A6
:1073A00070470000CB784A7810B55B010C7843EA4F
:1073B00082030A79234343EA02130C22424302F177
:1073C00090421363012C02BF8A78024B43F82020BD
:1073D00010BD00BFD080034008B54FF090435A68FD
:1073E00002B960B15B680BB1FFF7D3FF4FF090417A
:1073F00030B10120074B5860FFF7CBFFC86008BDD4
:10740000FFF7C7FF0223CB60FFF7C3FF0122024B48
:107410005A60F4E700100048002000484FF0904305
:107420005B6870B50BB1FFF7B4FF0121104B4578D5
:10743000596083780679002BC37814BF0224002496
:10744000002B14BF042200224379DB0043EA061319
:107450002B43234313434FF090429360054B5960F5
:107460000378002B14BF0B460223D36070BD00BF0E
:107470000020004800100048436813B9416070477D
:107480005B685A68012AFBD159607047836813B959
:10749000816070475B685A68012AFBD15960704768
:1074A000C369032B9FBF00EB83020133D160C3612B
:1074B0007047C369042B15D84FF09842116CC9026C
:1074C000FCD504339B0013650168103B11604168D3
:1074D0000C30116050F8041C034411604FF09842C6
:1074E000984200D1704750F8041B1160F8E7000083
:1074F000054B5B69C3F38512827003F03F021B0BDF
:1075000042700370704700BF00C0074030B5144C94
:10751000A04217D004F58044A04215D004F5804461
:10752000A04213D004F58044A0420CBF03204FF0CA
:10753000FF3006250B4C5BB105FB001004EB80000F
:10754000C26130BD0020F4E70120F2E70220F0E73D
:1075500005FB0010120204EB8004E261F1E700BFBA
:107560000080044000810340036BDA0702D5036901
:107570005B06F9D4704710B5FFF7F6FF012200F55E
:1075800000531A630B79044648881B0243EA804380
:10759000487A03434878002814BF40200020034362
:1075A000887A002814BF802000200343C87A00286E
:1075B00014BF202000200343087B002814BF1020A4
:1075C00000200343487B002814BF08200020034309
:1075D0008879002814BF4FF4803000200343636093
:1075E00004F580531A630A780AB90223E360002382
:1075F0006362C8790B7A497943EA8003002914BF92
:10760000102100210B43A3600AB10123E36010BDE8
:10761000F8B51446FFF7A8FF012200F500531A63DE
:10762000E279A379002A627A14BF4FF48017002709
:10763000002A14BF1022002294F80BC000EB411561
:1076400043EACC433B4313432B66237A064623B3DA
:10765000237B2A6E42EA43422A66013B18BF01237C
:10766000A278FFF753FF012306F580563363637852
:1076700022781B0643EA8263E27843EA02332279E6
:1076800043EA8223627943EA0223A27A002A14BFE2
:107690000422002213436B66F8BD2B6E2B66E2E7D3
:1076A0000D4B984208D1A3F50033C3F88411C36D84
:1076B00043F08003C3657047084B984204D1A3F59B
:1076C0001033C3F89411F2E7054B984204BFA3F5B9
:1076D0002033C3F8A411EAE70080054000C005404C
:1076E0000000064070B5054616461C4619B9032031
:1076F000FEF744FE0146402C1BD003D8DCB1202C01
:107700001BD070BD602CFCD1042303FB06F256088D
:1077100006EB4113B3FBF2F3094A203B02EAC30331
:10772000AA6822F06002AA60AA681443AC60EB6108
:10773000E7E70623E9E71023E7E70823E5E700BFCB
:10774000F8FF7F00012200F580535A60CB4393403D
:1077500003F00A034361416111B900F50050426032
:1077600070470000012200F5805310B55A6040F6C2
:10777000AA6341F205024361002312498360C36595
:10778000C26000F500520361C361C36491640E4995
:107790008365884206D00D4CA04203D004F5804496
:1077A000A0420BD18842036506D0084B984203D013
:1077B00003F58043984201D10023436501235360C0
:1077C00010BD00BFFFFF01000080054000C0054064
:1077D00070B50D46FFF7C6FF012300F580567360B4
:1077E000AB7C04461BB1836843F080438360EB7C31
:1077F0001BB12046297DFFF753FF2A8A6B7B204669
:107800001343EA891343E3602B7BD5E90112FFF7A9
:1078100069FF6B7D1BB1A36843F48033A360AB7D2C
:107820001BB1A36843F40043A360EB7D2A7E1B07D2
:10783000120502F4E00203F0E0431343A3656A7EFD
:10784000931E012B214B20D89C421AD003F5804374
:107850009C4218D003F580439C420CBF02234FF09A
:10786000FF3341F2AC5102205B0103F1804303F589
:1078700070335850032A23D10423F3652B786361B6
:1078800070BD0023EDE70123EBE79C4214D0104BC1
:107890009C4213D003F580439C420CBF02234FF05F
:1078A000FF3342F2AC5102205B0103F1804303F548
:1078B00070335850012ADEE70023F2E70123F0E796
:1078C000042204F50053DA65D8E700BF00800540C4
:1078D00000C0054083691B06FCD5406AC0B27047F2
:1078E00083695B06FCD5C1637047436810B5DA074E
:1078F00004460AD5FFF709F9636ADB075CBF012379
:10790000E360BDE81040FFF706B910BD00207047E6
:107910000020704738B50446054D15F0E6F80FCC49
:107920000FC594E80F0085E80F00002038BD00BFA8
:107930004027002047F6FF739A42F0B55ED0032936
:107940005ED8304ECF0016F8313006EBC100012B67
:1079500085780DD1C3785B1B23B1416831F91310D1
:10796000914202DCE818C0B2F0BD013B1BB2F3E764
:1079700040680028F8D0B0F90030934204DBB0F939
:1079800002309342B8BF134682883E44FF2A19BF93
:10799000C8242821B0F90640B0F90810A4EB03046C
:1079A0000CBF0122002294FBF1F47678224414B239
:1079B000721EA242A8BF22464FF47A7700EBC2049F
:1079C000E188A468013213FB014112B221EAE1719E
:1079D00001F5FA71B242B1FBF7F104DA00EBC2042F
:1079E000A4888C42EAD200EBC20232F8040C88422E
:1079F00028BF0846A84238BF2846B4E7FF20B3E7AF
:107A00000020B1E7402700200329F0B553D82B48C8
:107A100000EBC10410F83110636801290FD1E07840
:107A2000A478904294BFC4EB0001C4EB0201001B98
:107A3000CAB28242C8BF002233F91200F0BD002B47
:107A400039D0A178914202D3B3F90200F6E7E17888
:107A5000B3F900009142F1D999886478A1F1FF0649
:107A6000013C714203F10405E4B2714103F10C07DA
:107A70001FFA82FCCEB2B44216D805EBC1014FF416
:107A80007A756A43B1F902404968521A04EBD4711D
:107A900002EB610292FBF4F29042CFDBB3F90200F9
:107AA0009042CBDC10B2C9E737F831E04E1CE64516
:107AB000E3D33146DEE70248C0E700BF402700209D
:107AC0000080FFFF08B50448FFF724FFBDE8084029
:107AD000012015F047B800BF0040040001207047A6
:107AE000012070470F2070477FB50222084B0949DB
:107AF000CDE901234FF00073CDE90313052301A95C
:107B00004FF0FF30059315F081F807B05DF804FBE6
:107B1000006A180000020400002307B5CDE9003315
:107B2000012369464FF0FF308DF8023014F0B6FFA4
:107B300003B05DF804FB70470020704700207047D9
:107B4000C3681944836853F82100417810F8023B58
:107B500003EB01231360704710B54FF42F7200211F
:107B6000044633F04CFE00238022C4E92323084A54
:107B7000C4F894306260012284F898302272C4F80C
:107B8000AC3204F19C00BDE81040FDF755BE00BFCB
:107B9000EC40040010B5D0F8A0400A4674B900F0DB
:107BA000C1FC044640B12D2896BF074B074953F846
:107BB0002010074800F0F0FF204610BDD0F8A410B8
:107BC0001046A0470024F7E798410400F64004005F
:107BD000BE63040038B5012300F1090504460372B1
:107BE000284633F0E3FE58B1204600F03BFE29461C
:107BF0002046FFF7CFFF2046BDE8384000F03DBDEE
:107C000038BD0000037870B504460BB1002070BD8C
:107C1000FFF794FF0028F9D101232370237A23B1C1
:107C200020726168144800F0B7FF4FF0FF36D4F8B7
:107C3000B4526A1C18D0C4F8B4622046FFF77BFF28
:107C40002046E9B200F052FE0028F0D02046FFF7AF
:107C5000C1FF207A28B16168074800F09DFF00202D
:107C6000207200232370D2E700F07BFF431C0546FF
:107C7000E3D10120F5E700BFE355040038B50D4618
:107C80000446FFF769FF6B682046C4F8B032A96864
:107C900000F01AFB4FF0FF332046C4F8B432FFF770
:107CA0004BFF38BDD0F8B43210B50133044601D0D3
:107CB000002010BD00F055FFC4F8B4020130F7D128
:107CC00094F8B80280F00100F3E708B5FFF79AFFD7
:107CD00008BD0000F8B50B780546302B0E46174658
:107CE00004D14B7803F0DF03582B12D02F49721EBA
:107CF00012F8014F002C43D10A222146304633F0BE
:107D000093FF202D03460A463FD1631A584258413B
:107D100019E04A1C254912F8013FABB9244B304603
:107D20002B40032B1FD133F041FE6B1C48BF2B1D92
:107D30000238B0EBA30F4FEAA3040BD1B078372879
:107D40008CBF00200120F8BD5B5C13F04403E2D13E
:107D50001846F8E7304633F029FE02388442D4BF93
:107D600000200120EFE733F021FE002DA0F10200FA
:107D7000B8BF0335B0EBA50FD4BF01200020E2E768
:107D8000635C13F00403B3D1E2E727B1084302D0E8
:107D9000013B61F10002012000FA05F5013D1D40A3
:107DA000002A08BF9D4218BF0020CCE766BD040032
:107DB000030000800A7801382D2A0ABF0122002220
:107DC0008918FFF787BF000070B503787B2B16D1A9
:107DD0000546022100220B4E15F8014F7D2C05D1DE
:107DE000435C63B9D04300F0010070BDA35D13F0A4
:107DF000440302D001320131EEE7202CFBD00020F9
:107E0000F3E700BF66BD0400072805D8DFE800F0EF
:107E1000060A0D1013151A170020704700220820BB
:107E2000FFF758BF00221020FAE700222020F7E7D2
:107E30000820FFF7BFBF1020FBE72020F9E7084626
:107E4000FFF7C2BF012070472DE9F74307280C4612
:107E5000DDE90A7690461D4608D8013806280AD87A
:107E6000DFE800F01D27303A44574A00212850D05F
:107E700003B0BDE8F08300222046114633F050FFE6
:107E80003368C0B205EB83013A6845F8230001333B
:107E900048F8221033603B6801333B60E8E700227A
:107EA0002046114633F03CFF336880B205EB830176
:107EB000EAE700222046114633F032FF336805EB33
:107EC0008301E1E700222046114633F00DFE3368BE
:107ED00040B205EB8301D7E700222046114633F07C
:107EE00003FE336800B205EB8301CDE70022204694
:107EF000114633F0F9FDE1E7002389461E461D4691
:107F00008DF8063019F8013F7D2B06D125702D0A1A
:107F100065703B6848F82340BDE7202BF2D006F09F
:107F20000102013612B98DF80430EBE7102200216E
:107F300001A88DF8053033F0D7FD6319013598702D
:107F4000ADB2DFE72DE9F04F9B46002385B08B45AE
:107F5000814688469246CDE902336BDC1A461E46BE
:107F600019F80340FF2C08D15B4496B1013B43450F
:107F70005CDD2B2005B0BDE8F08FA4F120010129C4
:107F800005D9103C072C98BF01220133E8E70126F0
:107F9000FBE742B1013B4345EBDC354637464545FF
:107FA00004DB0020E6E79845F7D0E2E75D453BDBE0
:107FB00019F80730202B18D109EB07035B78FF2B4A
:107FC000D7D1CEB920465AF82510FFF71DFF98B338
:107FD00003AB019302AB00932046DDE90E235AF870
:107FE0002510FFF731FF0135D9E7212B0ED109EB21
:107FF00007035B78FF2BBCD1029B5AF825200E9912
:10800000012641F8232001330293ECE7A3F1100489
:10801000072C02D91C460137D3E709EB07035B782D
:10802000FF2BA6D1E4B2CCE70624CAE700252F46F1
:108030002E46B4E721209DE726209BE72DE9F04F4F
:1080400007460E4615469846044685B0DDF844902E
:10805000DDE90FAB206808B3DAF80020D8F800108B
:108060008A421BDA0E9B53F82210FDF71FFC48BB17
:10807000DAF800200132CAF800206268117BFE297C
:108080001BD10E9B1068012100932A464346CDE97F
:1080900002B9CDF804A0FFF7D1FF04462B7843B90D
:1080A00099F800302BB97EB101233C4689F80030A5
:1080B0002B70204605B0BDE8F08F01238BF800300F
:1080C0002B70EBE70C34C5E73446F2E770B5064693
:1080D0000D4633F06BFC0446304600F05DFD044E67
:1080E000AC4200D370BD304600F056FD0134F7E7D6
:1080F000A55B04002DE9F84F044602215248FFF722
:10810000E5FF1E212068FFF7E1FF6368586800F073
:1081100043FD4E4800F040FD67683B7BFD2B12D8C5
:10812000D7F808804FF0FF36404633F03FFC054655
:10813000DFF81491DFF874A1DFF84CB10C3717F8B1
:10814000013BFF2B01D1BDE8F88F212B18D8212B43
:1081500034D8DFE803F070767211191B1D1F33331A
:1081600033333333333321232527292B2D2F333337
:108170003333333333336C31354C002D21DC23E082
:10818000FE2B5CD0334CF8E7334CF6E7334CF4E786
:10819000334CF2E7334CF0E7334CEEE7334CECE78B
:1081A000334CEAE7334CE8E7334CE6E7334CE4E79B
:1081B000334CE2E7334CE0E7334CDEE7002D254C4F
:1081C00000DD0136202BBAD002214846FFF77EFFA2
:1081D0001E214846FFF77AFF504600F0DDFC594665
:1081E000204633F0D9FB2949002818BF21462848EA
:1081F00000F0D2FC3B78202B02D12B2000F0C0FCF9
:10820000244800F0C9FC002D09DD18F806301F2BAA
:1082100005D018F806001F2801D0AE4203DB0B483A
:1082200000F0BAFC8BE700F0ABFC0136F1E7002D63
:1082300085DD194CC5E7194C9FE7194C9DE7194C92
:108240009BE7194C99E700BFD2420400475C040049
:108250006642040050420400B54204006C4204002F
:10826000AD420400A9420400A0420400964204006A
:108270008C420400A1420400974204008D42040095
:10828000824204007B420400724204006342040004
:10829000E3550400E556040058420400654204001A
:1082A0006B42040012D40300B4420400496C040081
:1082B00010B50446236803B910BD237A13B92046CC
:1082C000FFF718FF0C34F5E710B541B10A7932B960
:1082D00001249C300C71FDF7B2FA204610BD00203D
:1082E000FCE700002DE9F04F2DED028B99B00393D0
:1082F00000F109030646184608EE103A0F4690466C
:108300004FF00009249D33F051FB039B0490C3F808
:10831000009018EE100AC5F8009008AA07A900F00E
:108320005CFC0446002840F0BC80089833F03EFB1B
:10833000A346A246039B1860D6F89C300293029B8A
:108340002BB9204619B0BDEC028BBDE8F08F029B23
:108350009B680193002B6FD00AF10903334413F893
:10836000012B202A14D04FF0000A0C2303FB0AF340
:10837000019A1A440092019AD158002957D0079BBC
:108380005B4554DB009B1B7A33B10AF1010934E0F1
:108390002A6801322A60E2E72B68D6F89420D21AC4
:1083A000039B1A6018AB03EB8B0353F8400C059347
:1083B00033F004FB81460028E7D1009B186833F0B6
:1083C000F5FA009B5B6893F80CC0BCF1FE0F18D166
:1083D000079A013A5A4514D01B680193059B53F83C
:1083E000400C33F0E3FA2B68013303442B602B6815
:1083F000F218527A1AB10BF1010BCA46B5E70133F4
:10840000F4E7D6F894202968521A824225DC3846CF
:1084100033F0CCFA009B8146186833F0C7FA484421
:108420007B280DD9414638461F4AFDF72CFA18EE35
:10843000103A049A002A2CDC029B1B6802937EE708
:10844000009B414638461A68FDF71DFA41463846FA
:10845000164A0134FDF717FA97E7BCF1FE0F94D1E5
:10846000079A013A5A4590D1D3F8009059F80C2B4D
:1084700022B9049B2B60039B1A60D8E7414638461B
:10848000FDF701FA41463846084AFDF7FCF9013488
:10849000ECE7197811B94FF0200119700133013A56
:1084A000C8E74C464DE700BFBB420400A55B040093
:1084B0002DE9F047002486B01C60DDE90EA80646D1
:1084C00089468AF800401168154888F80040174628
:1084D0001D468DF81740FDF7E9F918B901242B68FE
:1084E00001332B600020D6F89C6036B914B101230B
:1084F00088F8003006B0BDE8F087B06868B14B4638
:108500000021CDE902A8CDE900750DF11702FFF7B2
:1085100095FD9DF81730002BE8D13668E5E700BFE0
:10852000C04204002DE9F041BAB005460AAA084647
:1085300003A900F052FB0446B0B90DF10A03019300
:108540000DF10B038DF80A0000930AAA284604AB2C
:1085500003A9FFF7ADFF9DF80A20B2B158B19DF80D
:108560000B302BB1FFF7C6FD20463AB0BDE8F081D5
:10857000FFF79EFEF8E7D5F89C50002DF4D0A868D0
:1085800008B1FFF795FE2D68F7E700B346681AAB10
:1085900006F10C082AAF01934046049B039900970B
:1085A0000AAAFFF7CFFC04460028DDD1039B05A8EB
:1085B000CDE90637049B0595CDE9083803F002FBA9
:1085C00005A83368984705A803F002FBCCE72D24E3
:1085D000CAE7F8B56FF0AB0400F1AC0500262F46F2
:1085E000241A384633F0E2F96319984201D830462C
:1085F000F8BD15F8013B002BF9D00A2B08BF013656
:10860000EFE72DE9F0414FF00008C1F80080C2F813
:108610000080D0F8AC3205460E46144613B900204F
:10862000BDE8F08100F1AC07384633F0BFF900280F
:10863000F5D001224346D5F8AC128A420ED3B3F5E9
:10864000007F10D30120EBE73168013131602168F0
:1086500001312160F95C01330A2902D0B3F5007FB2
:10866000F2D30132E7E7FA5C0A2AEBD0002AE9D01C
:108670002268013301322260E1E710B5D0F88C2086
:1086800004460021093033F0BAF80023C4E924334A
:1086900010BD00002DE9F04700260446ADF5447DED
:1086A0007C22314605A80DF10808049633F0A7F89E
:1086B00080222046CDF8008003AB04A9FFF712FE0C
:1086C000012848D104A833F071F9039AD8F8003092
:1086D000811A1344093323440546013A04A802448D
:1086E00018465F183E1A002E20DC002221EAE171B4
:1086F0005A54D4F89060039BD8F80010D4F8902016
:108700001944B14217DCD4F89410E81A0244C4F8B2
:108710009020014404AAC4F89410D41825182B1BE7
:10872000002B13DC0DF5447DBDE8F08712F8016FD6
:1087300000F8016BD6E72244507A00F021FAD4F811
:10874000903001360133C4F89030D4E714F8010BAF
:1087500000F016FAE3E7E5DD24AD80223146284635
:1087600033F04DF844AB4FF400721846314633F005
:1087700046F80DF1100A034652464FF0010912F86F
:10878000017B002F3CD143F8296004A833F00EF997
:1087900029463B461AF8016B44AF57F8042B824236
:1087A00037D10133994501F8016BF3DAD4F89060C1
:1087B000039BB34236DC294A04F1090304A9284883
:1087C00000F0EAF9284633F0F1F8039AD8F80030BF
:1087D0001544134409332344801A1A466E1E1F1889
:1087E000B91A00292BDC002120EAE07299542C18D8
:1087F000631B002B96DD15F8010B00F0C1F9F7E7BC
:10880000202F06F1010604BF43F8296009F1010990
:10881000B5E70DF1100C6244D25CB242BDD000222B
:10882000EA54C3E7D4F8903001362344587A00F074
:10883000A7F9D4F890300133C4F89030B8E716F8AF
:10884000011F02F8011BD4F890100131C4F89010F8
:10885000D4F894100131C4F89410C1E7EC4004003E
:10886000C5420400F7B5044600F1090500F1AC0665
:10887000284633F09BF80746304633F097F8013727
:10888000C0F50070874220D8284633F08FF80130B9
:108890003718304633F08AF83146421C384632F0F9
:1088A00094FF284633F082F829460246304632F0DB
:1088B0007FFF284633F07AF80A23204480F8AC3052
:1088C0000023C4F8AC3203B0F0BD2046FFF781FEB0
:1088D00001AAC4F8AC0269462046FFF792FE0022C6
:1088E000009B234483F8AC20C2E700002DE9F04749
:1088F000D0E9245604460F46002294F89830012B04
:1089000006D10A2F06D1002084F89800BDE8F08730
:1089100000F2A7801B2F03D1022384F8983040E097
:10892000A7F10D0253425341082F04F1090884F8BE
:10893000983038D1002D33DDB54210D1384600F0E3
:108940001FF9202000F01CF9384600F019F9002327
:10895000013D08F80530013EC4E9245621E0FBDA68
:1089600005F1FF39384608EB090700F009F9A6EBD5
:10897000090208EB0501384632F027FF002339468B
:1089800008F806304F48013E00F006F935464D45DF
:1089900001DC4D46E0E7082000F0F2F8013DF6E783
:1089A000DAD10020B2E77F2F1ED1002EF9DDB542CB
:1089B000F7DA08EB0507691C41443846721B32F0B0
:1089C00004FF00233946404808F8063000F0E4F878
:1089D0000820013E00F0D4F8B542F9D1D4F8943023
:1089E000013BC4F89430DCE70D2F01D00A2F0AD1E7
:1089F0000D2000F0C5F80A2000F0C2F80023012085
:108A0000C4E9243382E7092F03D12046FFF742FE51
:108A1000C7E7D4F88C30013BB342C2DDB54208EB66
:108A2000050905F1010A0CDB384689F80070D4F815
:108A30009430C4F890A00133C4F8943000F0A0F84A
:108A4000AFE74946721B08EB0A0032F0BEFE48460B
:108A500000F0A2F80820013E00F092F8B542F9DDDE
:108A6000E2E7022B06D15B2F01D1032355E784F8FF
:108A7000982042E7032B94D1413F84F89820032F9C
:108A80008FD8DFE807F002070A160121204600F020
:108A90001DF886E74FF0FF31F8E7B54281DA25444B
:108AA000687A00F06DF8D4F890300133C4F8903053
:108AB00077E7002D7FF775AF013D0820C4F890508F
:108AC000BCE700BFCE420400D342040073B50C469D
:108AD0000546FFF77EFD631C12D1D5F8AC421CB1F0
:108AE000013CC5F8AC420124D5F8AC6256B344BB96
:108AF0006946284601AAFFF784FD30BB02B070BD6D
:108B0000012CFBD1D5F8AC328342F7D20133C5F842
:108B1000AC32E9E7082000F033F8202000F030F80C
:108B2000082000F02DF80136204632F03FFFB04219
:108B3000F0D82846FFF7A1FDD5F8AC32002BDDD0E8
:108B4000D6E7002605F10904EEE7009C05F1AC0626
:108B5000019BA342D2D9315D2846FFF7C7FE0134FD
:108B6000F6E707B500200DF1070100F064FB20B91E
:108B70009DF8070003B05DF804FB4FF0FF30F9E704
:108B800010B5C1B20446002000F045FB00280CBF20
:108B900020464FF0FF3010BD0FB407B504A951F8BF
:108BA000040B019111F00EFA002003B05DF804EB04
:108BB00004B0704710B54C1C0B460119045D222C03
:108BC00003D07B2C01D05C2C05D1D21A184432F092
:108BD000FCFD012010BD0020FCE72DE9F84F054603
:108BE0008846914632F0E2FE2B4606461A46117838
:108BF0005C1B202903F10103F8D001234FF0000A88
:108C00006FF0404BC9F80020C8F80030A64201D8E8
:108C1000002014E02F5D29197B2F12D0222F2ED196
:108C2000D8F80030621C5B442A4449F82320012C08
:108C300009D911F8013C13F0DF0F04D02120BDE861
:108C4000F88F7D27F3E701342B5D2A19BB4208D149
:108C5000537813F0DF03F1D1222F00D113700134C8
:108C6000D4E75C2B07D1324621462846FFF7A2FF06
:108C70000028E3D0013E0134A642E5D8DEE75C2FB0
:108C800008D1324621462846FFF794FF0028D5D068
:108C9000013EE4E7202FE2D1631C9E4281F800A050
:108CA000DDD9EA18EB5C202BD9D0D8F800300F2B97
:108CB00005DC49F823200133C8F80030CFE71E2037
:108CC000BDE74FF0402213B50024536F684643F0D0
:108CD0000103536700948DF80440FDF75DFF2046C3
:108CE00002B010BD08B50248FDF7D8FD002008BD50
:108CF00000B4C40470B586B001AA1546184B03F140
:108D00001006144618685968083303C4B342224653
:108D1000F7D119889B782180A370124BD3F84C218E
:108D2000120314D4D3F85041E4B28DF80E40FDF78D
:108D300099FE204480F308008DF80D000A48FCF7E6
:108D400015FD2846FDF7FAFD002006B070BD074B63
:108D50001C884FF6FF739C4208BF8224E5E700BFE2
:108D6000D74204000080E00F00F049020001E00F4C
:108D70001FB50B4A01AB1068516803C31189927A81
:108D800019809A70252301A88DF80530FDF770FE33
:108D90006420FDF7A5FE002005B05DF804FB00BFD0
:108DA000EA4204006FF00402502110B50A480B4C4F
:108DB00012F0800FD3B21BBF03F00F03043BA318C4
:108DC0001B1802F101020CBF83F8001319763D2A2B
:108DD000EED1002010BD00BF00ED00E000E100E09A
:108DE00000F07AB838B502F0DDF80446E0B902F0D8
:108DF000F3F94FF4167343430C4803F5742303F25D
:108E00003F23B3FBF0F30A4A0A4913600A220D68B4
:108E10000948013A12F0FF0240F8043BF9D103EB94
:108E2000C3022B4413440B60204638BD40420F0060
:108E3000A42700207027002074270020704700001E
:108E4000012208B5034B1A7002F0A0F9024B18601A
:108E500008BD00BF6C270020A0270020F8B5144CE7
:108E6000237823B302F092F9124B134D1B68134E73
:108E7000C01A012838BF0120114B124F18602B78FF
:108E800056F8232046F82300111A3A680E48521A61
:108E90000A213A600932B2FBF1F20133DBB202601F
:108EA000B3FBF1F201FB12332B7000232370F8BDEA
:108EB0006C270020A02700209C270020742700207A
:108EC0006827002070270020A4270020014B186885
:108ED000704700BFA427002020230949094A81F8D0
:108EE0002D33094B03F50050426702674FF40050E1
:108EF00003F58053C1F8840148605A67704700BF8A
:108F000000E100E0010000A000C00040054B064A5F
:108F10001B78916DC90700D513B10028F9D17047AE
:108F200001207047BC27002000C000402DE9F84315
:108F3000874B1E6F9D6A9C6AF00705F0020504F0DE
:108F400001044CD501278349834A91F80090DFF84A
:108F500028821767B9F1000F00F0ED80002008703B
:108F600098F80010B94200F2E18002219762A2F560
:108F7000805291629A6DD103FCD478495A6B09688A
:108F800022F470620A435A637548764A9969006808
:108F9000126821F47F01024321F47F410A439A6160
:108FA0007148724A19691268006821F47F6121F0E2
:108FB0000F0102430A431A616D499A69096822F058
:108FC000FF020A439A610223002D40F0AB80624AFF
:108FD00093620123002C00F0A780664A936216F08A
:108FE00000527FD04FF0010E5B4F63493A67594AF8
:108FF000574B82F800E00A78DFF864C172440A70C7
:109000005A6B564902F4706008609869554900F43B
:109010007F4008609969DFF8588101F47F01CCF83E
:109020000010D3F818C05FFA8CFCC8F800C0D3F861
:1090300010C0DFF838810CF47C6CC8F800C0D3F89D
:1090400010C0DFF824810CF03F0CC8F800C0C7F84E
:1090500028E04FF0020EDFF81CC1CCF828E04FF0FA
:10906000004ECCF828E0D3F858C01CF4803FFAD169
:109070004FF0004C22F4706242F40072B0F5C84F19
:10908000C7F828C05A6302D8B1F5C80F0CD9304AC6
:109090003A499369096823F47F0323F47F4343EA41
:1090A000012343EA01439361294A35491369096859
:1090B00023F47F6323F00F03880843EA910343EA14
:1090C00080131361936923F0FF030B439361022321
:1090D000002D37D102F5005293620123002C33D0CA
:1090E000244A9362002E1BDA4FF000421A4B1849B3
:1090F0001A67244A12789AB101229A620222A3F5D1
:1091000080539A628A6DD203FCD44FF000429A6178
:10911000022205B9104B9A620123BCB1154A936231
:10912000BDE8F883134A53E70B4A57E7FFF786FE7B
:10913000144B1F7053E7FFF791FE01F02BFD88F8E9
:1091400000904CE70B4AC7E7034ACAE7024AE6E742
:1091500000C00040BC27002000E00040C0270020E5
:10916000B8270020B4270020B0270020AC2700201B
:10917000A827002000D00040BD2700203411002087
:1091800030110020BE270020FFF7D0BE10B50446E6
:10919000FDF7ACFC024B1C60FDF7ACFC002010BDE1
:1091A000C427002010B5FDF7A1FC034B1C68FDF798
:1091B000A1FC204610BD00BFC427002007B530B970
:1091C000CDE90012FFF7EEFFDDE9001230B1436890
:1091D00023B1006803B05DF804EB1847232003B007
:1091E0005DF804FB30B51C4685B058B9CDE90012D6
:1091F000FFF7D8FFDDE9001204B903AC20B9232042
:1092000005B030BD03B903AC8568002DF7D0234607
:109210000068A847F4E707B501228DF807100DF1A3
:109220000701FFF7CBFF03B05DF804FB0B460146D7
:109230001846FFF7F0BF00230122FFF7D3BF00005D
:109240000EB40FB505AB53F8042B039318B9019274
:10925000FFF7A8FF019A0146039B064810F0C0FEE5
:109260000028D4BF3720002004B05DF804EB03B021
:10927000704700BF2D92000010B5002400F022F8C6
:109280000348044B84604360FFF780FF204610BD15
:10929000CC2700209992000007B5044B0093044BA3
:1092A0001B8800F025F803B05DF804FBC8270020F8
:1092B000381100204FF06042D2F8803E1B02FBD4F0
:1092C0007047000008B5074B1A6842B90122082010
:1092D0001A60FCF70BFC0449044801F04BFB00202A
:1092E00008BD00BFE02700203C110020D827002047
:1092F0002DE9F0470F4615461E46002402F10408EA
:1093000002F109094FEA132A5FFA88F84C4502D3A3
:109310000020BDE8F0871CB3012C05D14146082090
:10932000FCF7F0FB0134F1E7022C1BD0032C01D138
:10933000F1B2F4E7042C17D0052C04D1089B13F8E4
:10934000011B0893EBE7AB1DA3420FD0EB1DA3421B
:109350000CD005F10803A3420AD0BB1F195DDEE75C
:109360005B21DCE7D121DAE75146D8E75A21D6E77D
:109370005D21D4E790F82A3001223BB190F82E30DD
:10938000022B03D180F82E20184670471346FBE7C6
:1093900080F82410704790F82400704790F82B0054
:1093A00070470000002809DB0122430900F01F007C
:1093B00002FA00F0024A603342F82300704700BF0F
:1093C00000E100E0F8B504460D4690F82B3081B17D
:1093D00073B990F82C60FDF789FB054601213046F2
:1093E00001F044FA2846FDF785FB012384F82B3071
:1093F000F8BD002BFCD090F82C70FDF777FB0646EB
:109400002946384601F032FA3046FDF773FB84F8FE
:109410002B50EDE770B504460568FFF7C3FE8442A4
:1094200002D10020FFF7B2FE95F92800FFF7BAFF3E
:1094300095F92830002B0DDB01215A0903F01F0399
:1094400001FA03F31449203241F82230BFF34F8F61
:10945000BFF36F8F95F92900FFF7A4FF95F9293025
:10946000002B0DDB01215A0903F01F0301FA03F35E
:109470000949203241F82230BFF34F8FBFF36F8F7D
:1094800000232846C4E90033C4E90433A360EB6831
:10949000BDE87040184700BF00E100E02DE9F0474B
:1094A00004460D46164690F82480FDF72EFB94F8EE
:1094B0002A30E3B1002384F82A30FDF72CFB94F81E
:1094C0002D90FDF713FB07460121484601F0CEF928
:1094D0003846FDF70FFB2E44B8F1000F26D1AE42FF
:1094E00008D1204663680121BDE8F0471847FDF721
:1094F00012FBF0E794F82630002BF0D020462368CA
:1095000015F8011B98470028E9D0BDE8F08794F8CA
:1095100026305BB12B780A2B03D10D21204623681E
:1095200098472046236815F8011B9847AE42EED1B4
:10953000D7E72DE9F7434FF00009044690461E4651
:10954000C3F800904F1E3368434505D2FDF7DDFA9E
:10955000A269C2B9FDF7DFFA94F827305BB911238D
:10956000012220460DF107018DF80730FFF796FF25
:10957000012384F827303368002B0CBF1B20002008
:1095800003B0BDE8F083E16922698A5C07F8012F26
:109590002569226A0135954208BF4D46A2692561B9
:1095A000013AA261FDF7B7FAA368204698473368ED
:1095B00001333360C7E708B5FFF770FF002008BD2F
:1095C000F8B51F46536806460C461546002B6BD06F
:1095D0009368002B6AD030220021204632F00FF928
:1095E0006B682046E361AB6823622B7B84F82430F0
:1095F000AB7B276084F8253040F201130127E38418
:10960000069B6360079BA360089BE3602B7884F84C
:1096100028306B7884F82930254B34607360254BF3
:10962000B360254B3361254B7361254BF360254BAC
:109630003362254B84F82E70B361244BF3619DF89F
:10964000283084F82D309DF8243084F82A7084F86E
:109650002C300023697B84F82B30FFF7B3FE95F99B
:109660000100FFF79FFE95F90130002B06DB5A0938
:1096700003F01F039F40164B43F8227095F900003A
:10968000FFF790FE95F90030002B08DB0122590905
:1096900003F01F0302FA03F30D4A42F8213030466B
:1096A000FFF774FD0020F8BD2220FCE72120FAE737
:1096B000B795000033950000919300009793000048
:1096C0001594000075930000C59300009D93000061
:1096D00000E100E010B50446FDF717FAA269236A1D
:1096E0009A4203D2FDF717FA012010BDFDF713FAD5
:1096F0000020FAE737B504460D46FDF706FA94F860
:10970000253002466BB1132D07D1002384F8263093
:1097100003B0BDE83040FDF7FEB9112D01D10123A2
:10972000F4E76369E1691046CD54A16963690131C9
:10973000A161216A01338B42636104BF002363612D
:10974000FDF7E9F90423A26984F82E30236A9A42CE
:109750000BD11323012220460DF107018DF80730AC
:10976000FFF79CFE002384F8273003B030BD90F84B
:109770002A3073B5044603F0FF01A3B94368019191
:109780009847012384F82A3094F82D60FDF7AEF94C
:1097900005460199304601F069F82846FDF7AAF917
:1097A000022384F82E3002B070BD026BD36C43F0FC
:1097B0000403D364704710B50446026B93695906DD
:1097C000FCD5002394F836101A4694F83500FDF7BE
:1097D00043FA002394F838101A4694F83700FDF73E
:1097E0003BFA94F83D30DA0707D5002394F83A1095
:1097F0001A4694F83900FDF72FFA94F83D309B078C
:1098000007D5002394F83C101A4694F83B00FDF766
:1098100023FA206B0021FDF795FF002010BD08B54D
:10982000006BFEF75DF8002008BD036BDA6C19B120
:1098300042F00102DA64704722F00102DA64012288
:1098400003F500539A6470472DE9F0414FF0010889
:109850001C46574B86B00293564B0C9D0193564BBA
:10986000174600930A46CDE903882946534BFFF774
:10987000A7FE0646002875D1236804222B632379AE
:1098800085F83430A17985F83610607985F835008F
:10989000237A85F83830E37985F83730A37A85F86C
:1098A0003A30637A85F83930237B85F83C30E37AA7
:1098B00085F83B304346FDF7CFF943460222217A33
:1098C000E079FDF7C9F93E7039462068FDF780FF61
:1098D0001421627B3A4B03EB4210C0F8AC1594F8AC
:1098E00006C061792E3203EB421341EA0C41596004
:1098F000227AE37943EA0243C0F8BC3585F83D603B
:109900007B7E032B52D8DFE803F01F02314C01238A
:10991000002785F83D3000230222A17A607AFDF706
:109920009BF9A17A627A637B42EA014241F2B45127
:109930005B0103F1804303F570335A50042223681E
:1099400003F58053DA65A7B96379052185F83530C9
:10995000A37985F836302068C36C43F00403C364F0
:10996000FDF7F0FE304606B0BDE8F081022385F831
:109970003D3000230422217BE07AFDF76DF941F2AE
:10998000AC520221637B5B0103F1804303F570332A
:109990009950217BE27A42EA014241F2B8515A5091
:1099A000D2E70323012785F83D30B4E72326D9E722
:1099B000B7970000AB9700002B9800001F9800009D
:1099C00000C00340036B10B59B690446190609D516
:1099D000FFF780FEB0B1206BFDF77CFF014620460B
:1099E000FFF788FE236B9A6CD20711D5012103F58E
:1099F000005291649B699B060AD52046BDE8104041
:109A0000FFF7B5BE226BD36C23F00403D364E9E700
:109A100010BD000007B501F0C5FB6A4601F022FC4D
:109A200018B14E21034800F007FBDDE9000103B047
:109A30005DF804FBF542040008B5FFF7EBFF80B2C8
:109A400008BD08B5FFF7E6FF08BD08B5FFF7F9FF49
:109A5000FA23B0FBF3F080B208BD01207047042068
:109A60007047000008B501F09DFA18B17621024850
:109A700000F0E2FA002008BDF542040008B500F04D
:109A80003FFA0D4A536A43F470235362EFF308839D
:109A90004FF0CD31094A043B93420AD24FF04023A4
:109AA00002221A67FFF7DEFFBDE808400448FDF711
:109AB00031BF43F80419EFE700ED00E0000000209B
:109AC000004004000148FDF710BF00BF0080014ABC
:109AD00040F2016000F092BA7047704708B510B1CB
